:06000000020021020AFECD
:03000B0002098D5A
:0100130032BA
:03001B00020B8451
:20007A00752200E4F523F524F525F526F527F528F529F52AF52BF52C752D16752E44F52F0B
:20009A00F5307531FA753243F533F53475357A7536447537CD7538CC75396C753A40F53B08
:2000BA00F53C753DC8753E42F53FF540F541F542F543F544F545F5467547AB7548AA75493E
:1900DA00AA754A3DF553F554F555F556F559F55AF55BF55CD20002001E11
:03001E000205A335
:2000F300758911758A00758C28758B50758DF0C28DD2AFD2A9D2ABD288D2A8D28C22AE8228
:20011300AF83EE4F601B7C327D00EC24FFFAED34FFFB8A048B05EA4B70F01EBEFF011F8065
:20013300E122AF82C292C2918FA0900005120111D290900005120111C29022AF82D292C203
:20015300918FA0900005120111D290900005120111C29022C29075823812013575820F12A3
:2001730001357582061201357582011201357582800201357F00EF9010B793F582C007125A
:20019300014E900064120111D0070FC3EF6480948940E39001F41201117582C01201357F02
:2001B30000EF9010C093F582C00712014E900064120111D0070FC3EF6480949140E390013E
:2001D300F41201117582011201357F00EF9010D193F582C00712014E900064120111D007B4
:2001F3000FC3EF6480949140E39001F41201117582C01201357F00EF9010E293F582C00796
:2002130012014E900064120111D0070FC3EF6480949140E39001F4120111758201120135A5
:200233007F00EF9010F393F582C00712014E900064120111D0070FC3EF6480949140E3900C
:2002530001F41201117582C01201357F00EF90110493F582C00712014E900064120111D046
:20027300070FC3EF6480949140E39001F41201117582011201357F00EF90111593F582C0A0
:200293000712014E900064120111D0070FC3EF6480948D40E39001F41201117582C0120198
:2002B300357F00EF90112393F582C00712014E900064120111D0070FC3EF6480948D40E3BA
:2002D3009001F41201117582011201357F00EF90113093F582C00712014E90006412011199
:2002F300D0070FC3EF6480949140E39001F41201117582C01201357F00EF90114393F58223
:20031300C00712014E900064120111D0070FC3EF6480949140E39001F41201117582011213
:2003330001357F00EF90115493F582C00712014E900064120111D0070FC3EF6480948C40EB
:20035300E39003201201117582010201357582011201357F00EF9011E293F582C00712018B
:200373004E900064120111D0070FBF110040E69001F41201117582C01201357F00EF901171
:20039300F493F582C00712014E900064120111D0070FBF100040E69001F412011175820190
:2003B3001201357F00EF90120593F582C00712014E900064120111D0070FBF100040E69018
:2003D3000008120111E4C0E0C0E074A0C0E023C0E0853B82853C83853DF0E53E120B8D85B9
:2003F300823B85833C85F03DF53EE58124FCF5817582010201357582011201357F00EF909A
:2004130011AE93F582C00712014E900064120111D0070FBF110040E69001F4120111758244
:20043300C01201357F00EF9011C093F582C00712014E900064120111D0070FBF100040E6AD
:200453009001F41201117582011201357F00EF9011D193F582C00712014E90006412011176
:20047300D0070FBF100040E6900320120111E4C0E0C0E0C0E0743FC0E0853782853883859D
:2004930039F0E53A120D4985823785833885F039F53AE58124FCF58175820102013575821B
:2004B300011201357F00EF90116093F582C00712014E900064120111D0070FBF110040E64B
:2004D3009001F41201117582C01201357F00EF90117293F582C00712014E90006412011196
:2004F300D0070FBF100040E69001F41201117582011201357F00EF90118493F582C00712AF
:20051300014E900064120111D0070FBF100040E69001F41201117582C01201357F00EF90E0
:20053300119593F582C00712014E900064120111D0070FBF100040E69001F412011175823D
:20055300011201357F00EF9011A693F582C00712014E900064120111D0070FBF070040E66E
:20057300900320120111C02BC02CC02DC02E90000075F040743F120B9885822B85832C8557
:20059300F02DF52EE58124FCF5817582010201351201671201871200F385338285348385C8
:2005B30035F0E5361208AC75826812014E75823A12014E12092F1209698523828524838527
:2005D30025F0E5261208AC75822012014E75822012014E75827612014E75823A12014E12C0
:2005F300092F1209697582C0120135854B82854C83854DF0E54E1208AC75826112014E759E
:20061300823A12014E12092F120969853B82853C83853DF0E53E1208AC75822012014E75CE
:20063300822012014E75826612014E75823A12014E12096975822512014E75820212013512
:20065300900032120111E4C0E0C0E074A0C0E023C0E08523828524838525F0E526120C9C51
:20067300AF82E58124FCF581EF6012C28C1204B1E4F523F524752520752641D28CE4C0E037
:20069300C0E074A0C0E074C1C0E08523828524838525F0E526120CCCAF82E58124FCF5810C
:2006B300EF6012C28C1204B1E4F523F524752520752641D28C30B2030207850559E4B559E5
:2006D30002055A7508C8750900855982855A83120CFCE5828583F045F07007C28C12036039
:2006F300D28C75085E750901855982855A83120CFCE5828583F045F07007C28C120409D209
:200713008CAC59AD5A7E007F00BC6015BDEA12BE000FBF000CE4F559F55A055BB55B0205B7
:200733005CAC5BAD5C7E007F00BC600EBDEA0BBE0008BF0005E4F55BF55C852B27852C28A2
:20075300852D29852E2AE4C0E0C0E0C0E0743FC0E0853B82853C83853DF0E53E120B8D852D
:20077300823B85833C85F03DF53EE58124FCF5818009E4F527F528F529F52A74CDC0E014AC
:20079300C0E0C0E0743DC0E0853B82853C83853DF0E53E120CCCAF82E58124FCF581EF60F4
:2007B30011E4F527F528F529F52AF53BF53CF53DF53E74CDC0E014C0E0C0E0743DC0E085EA
:2007D30033828534838535F0E536120CCCAF82E58124FCF581EF70030205AC758201120119
:2007F30035758202120135E4C0E0C0E07420C0E074C1C0E08523828524838525F0E5261236
:200813000C9CAF82E58124FCF581EF6046752200E52290109693F58212014E9000C81201B1
:2008330011052274F8252250E790012C1201117582C0120135752200E5229010AC93F582AF
:2008530012014E9000C8120111052274F6252250E78044752200E52290109F93F5821201DB
:200873004E9000C8120111052274F4252250E790012C1201117582C0120135752200E52210
:200893009010AC93F58212014E9000C8120111052274F6252250E780FE120E14AE82AF83EF
:2008B30075080A750900C007C006120F74AC82D006D0078C5675080A7509008E828F831208
:2008D3000FAAAE82AF8375080A750900C007C006120F74AC82D006D0078C5575080A750902
:2008F300008E828F83120FAAAE82AF8375080A750900C007C006120F74AC82D006D0078C08
:200913005475080A7509008E828F83120FAA75080A750900120F74AE828E5322E55630E75F
:200933002F75822D12014EE55375F0FEA42553F553E55475F0FEA42554F554E55575F0FE52
:20095300A42555F555E55675F0FEA42556F5562275822B02014E74302553F58212014E7417
:20097300302554F58212014E74302555F58212014E74302556F58202014EC021C0E0C0F0D5
:20099300C082C083C007C006C005C004C003C002C001C000C0D075D000C027C028C029C056
:2009B3002A900000E4F5F07441120B98AC82AD83AEF0FFE58124FCF581C007C006C005C02E
:2009D30004C03BC03CC03DC03E852F828530838531F0E532120D49A882A983AAF0FBE5812A
:2009F30024FCF581D004D005D006D007C000C001C002C0038C828D838EF0EF120EB1AC8268
:200A1300AD83AEF0FFE58124FCF581C037C038C039C03A8C828D838EF0EF120B8DAC82AD08
:200A330083AEF0FFE58124FCF5818C4B8D4C8E4D8F4EC004C005C006C0078547828548836B
:200A53008549F0E54A120B9885823F85834085F041F542E58124FCF581C03FC040C041C0AA
:200A7300428523828524838525F0E526120D4985822385832485F025F526E58124FCF581B7
:200A9300C047C048C049C04A8523828524838525F0E526120B9885824F85835085F051F508
:200AB30052E58124FCF581C04FC050C051C0528533828534838535F0E536120D49858233B6
:200AD30085833485F035F536E58124FCF581D0D0D000D001D002D003D004D005D006D007BA
:200AF300D083D082D0F0D0E0D02132C021C0E0C0F0C082C083C007C006C005C004C003C05C
:200B130002C001C000C0D075D000B20030003C852B27852C28852D29852E2A74CDC0E014EF
:200B3300C0E0744CC0E0743EC0E0853B82853C83853DF0E53E120B8D85823B85833C85F050
:200B53003DF53EE58124FCF5818009E4F527F528F529F52AD0D0D000D001D002D003D00479
:1A0B7300D005D006D007D083D082D0F0D0E0D02132758B50758DF0B2803208
:20109600596F752057696E2100596F752043726173686564210047616D65204F7665722EF2
:2010B600004D697373696F6E3A004C616E6420417274656D69732073616600656C79206F57
:2010D6006E20746865207375726661006365206F66206D6172732E204C616E64002077698D
:2010F600746820612076656C6F6369747900686967686572207468616E202D31302E0020B0
:20111600496E666F726D6174696F6E3A00477261766974793A20332E370020576520776945
:20113600736820796F75206C75636B20004F7572206D697373696F6E2064657065006E646A
:2011560073206F6E20796F752E00205369722120526F636B657420626F6F730074657273D6
:2011760020617265206F7665726865617400696E672120202020456E67696E65207000704E
:201196006F7765722064656372656173657320006279203235252E0020536972212057658D
:2011B600206172652065787065007269656E63696E6720612073616E647300746F726D2103
:2011D600204275636B6C65207570210020536972212057652068617665206120660075656D
:2011F6006C206C65616B2E204675656C206400646563726561736573206279203230250001
:2012160053697221207468726F74746C65206D61006C6166756E6374696F6E21204E6F2094
:20123600740068726F74746C6520636F6E74726F6C2E005468726F74746C6520636F6E74A9
:0D125600726F6C006973206261636B2E0083
:0B0B8D00A8811818C6B2E7C6020D4987
:200B9800120C3BBC0003020E69EF60FA30D502B2D1E583B4FF03020E7FE582B4FF03020EFF
:200BB8007F258340072482400B020E692483145003020E7FF582EA8DF0A4A8F0EA8EF0A482
:200BD80028F8E435F0F9EB8DF0A428E935F0F9E433CA8FF0A429F9EA35F0FAEBF88EF0A46C
:200BF80029F9EA35F0FAE433FBEC8DF0A429F9EA35F0FAE43BFBE88FF0A42AFAEB35F0FB14
:200C1800E433CCFD8EF0A42AFAEB35F0FBE43CFCED8FF0A42BFBEC35F0FC20E703120C699B
:030C3800020E4861
:200C3B00AA82AB83A2F73392D1F5826002D2F7ACF0E58124F9F8E6FD08E6FE0886F008E61C
:0E0C5B00A2F73392D5F5836002D2F7AFF022F4
:06005000E478FFF6D8FD84
:200C69007804EC7011E58224F8500AF582E4C9CACBFCD8EF22EC7820058220E713D582018A
:130C890022C3E933F9EA33FAEB33FBEC33FCD8EA15822298
:20002E007900E94400601B7A00901263780175A000E493F2A308B8000205A0D9F4DAF27503
:02004E00A0FF11
:200C9C00FFA8811818120DE9D2D133E6400730E70B7582012220E70675820022C2D1120DC1
:100CBC00CBE97003F5822230D101B3E433F5822203
:200CCC00FFA8811818120DE9D2D133E6400730E70B7582002220E70675820122C2D1120D91
:100CEC00CBE97003F5822220D101B3E433F58222E3
:200CFC00E508450960467A01E50825E0F508E509334012F509E5829508E583950940030AC5
:200D1C0080E6C3E50913F509E50813F508C3E5829508F5F0E58395094005F58385F082C369
:0D0D3C00E50913F509E50813F508DAE122D1
:200056007800E84400600A790175A000E4F309D8FC7800E84400600C7900900001E4F0A3A8
:04007600D8FCD9FADF
:200D4900120C3B7900E583B58202800D5003120E97E583C39582120FE2E5D0C465D020E18C
:200D690017EA2DFAEB3EFBEC3FFC50097401120FE2EC4480FC020E48C3EA9DFAEB9EFBEC6E
:190D89009FFC500FC3E499F9E49AFAE49BFBE49CFCB2D1120C69020E484E
:200DA2007A10E4FBFCE58225E0F582E58333F583EB33FBEC33FCEB9508F5F0EC9509400665
:090DC200FCABF0438201DADD22F2
:200DCB007901AA82E68F82B5821318E6B5F00E18E6B5830918E68A82B58202790022B4801F
:200DEB000FE5F0700AE5837006E58270027F00EFB6801518B6001018B6000B18B600060887
:090E0B00080876002208080822FC
:200E1400121025700AE582458345F0700122E430D112F4700BE5F0F47006E58330E70122BF
:140E340090800022700AE5F07006E58320E70122907FFF22F1
:200E4800B98003EA13B34010EA2401FAE43BFBE43CFC50047C800582BC000EBB000BBA00EE
:200E680008E4F5F0F583F58222A2D1E582138CF092F78B838A8222E4F583F58275F080F4AE
:0F0E8800A2D11322E4F583F58275F0C0747F22A6
:1A0E9700E582C583F582A2D133A2D592D11392D5ECCFFCEBCEFBEACDFA22E3
:200EB100120C3B30D502B2D1BF0009BC0003020E8C020E7FBC0003020E69E583B4FF0BE549
:200ED10082B4FF03020E8C020E69E582B4FF03020E7FC395835007247F400B020E692480CB
:200EF100145003020E7FF582C3ED9AEE9BEF9C40111582C3EA33F9EB33FAEC33FBE433FC10
:200F11008005E4CCCBCAF9C08275F019C3E99DEA9EEB9FEC9400D5F002802D400EE99DF921
:200F3100EA9EFAEB9FFBEC9400FCC3B3E833F8E58233F582E58333F583C3E933F9EA33FA81
:200F5100EB33FBEC33FC80C4B3E4F938FAE43582FBE43583FCD082500405827C80120C6968
:030F7100020E600D
:0D00210075815C121080E582600302001EF4
:200F7400C2D5E58330E70DD2D5E4C39582F582E49583F583E50930E70BE4C39508F508E4B5
:160F94009509F509120CFC30D50BE4C39582F582E49583F58322B6
:200FAA00C2D5E58330E70DD2D5E4C39582F582E49583F583E50930E70DB2D5E4C39508F5E2
:180FCA0008E49509F509120DA230D50BE4C39582F582E49583F58322EB
:200FE2006040F82582500274FFF582E824F8501ECCCBCAF9E4CC24F85014CBCAF9E4CB2417
:20100200F8500BCAF9E4CA24F8500379002224086010F8C3EC13FCEB13FBEA13FAE913F9C9
:03102200D8F122E0
:20102500121084C3749E958240397900120FE230D126E9F42401F582EAF43400F583EBF41B
:201045003400F5F0ECF43400700AE582458345F0700122E430E70F22EC20E71489828A83A2
:1B1065008BF02230D10AE4F582F583F5F074802274FFF582F583F5F0747F229E
:041080007582002253
:12108400AA82AB83A2F73392D1F5826002D2F7ACF02271
:00000001FF
