:040000000200413287
:03000B0002080ADE
:0100130032BA
:03001B00020AB620
:0100230032AA
:03002B000209B710
:01003300329A
:03003B000210EBC5
:20009A00752201E4F523F524753864F539753A01F53DF53EF53FF540F541F542F549F54AF2
:2000BA00F54BF54CF54DF54EF54F7550507551C3755247F553F554F555F556F557755850A1
:2000DA007559C3755A47F55BF55C755D7A755E44755F7B75601475616E7562407563337548
:2000FA006433756503756641F567F568F569F56AF56BF56CF56DF56E756FCD7570CC757112
:10011A004C75723DF57BF57CC200C201D202D20356
:0301350002003E87
:03003E0002038E2C
:200138007F0B7EBEEE14FDFE70FAEF14FDFF70F4227F027E04EE14FDFE70FAEF14FDFF701C
:20015800F422AE82AF830EBE00010F7C007D00C3EC9EED9F501AC007C006C005C0041201CE
:2001780038D004D005D006D0070CBC00E20D80DF22AE82AF83EE2477F582EF3417F583E4A9
:2001980093F58022AF82C2B7C2B6900005C00712015AD0078FA090000512015AD2B5900013
:2001B8000512015AC2B522AF82D2B7C2B6900005C00712015AD0078FA090000512015AD247
:2001D800B590000512015AC2B52275820112019CE4F547F54890003212015AE547541F6085
:2001F80002800875820112019C800EE547540F600280067582C012019CE5472439F582E566
:20021800483418F583E493FFBF3E0875820112019CD2DEE5472439F582E5483418F583E413
:2002380093F5821201BFE5472439F582E5483418F583E493FFBF5D069003E812015A05470D
:20025800E4B547020548C3E5479411E548940250030201ED9007D012015A75820112019C42
:20027800E4F547F54822758E00758A00758C00C28DD2A9D2AF22758911758B00758D4CC258
:200298008FD2ABD2BB75B7082275D80075E90075F90075D90075EA9975FA03753B32753CF3
:2002B8000775DA49D2AF22759D0175BD0075BC88D2AD90000202015AAD82AE83AFF0758282
:2002D80001C007C006C00512019CD005D006D0077B007C008D828E838FF0121667700122CA
:2002F8000BBB00010CEB541F701C758201C007C006C005C004C00312019CD003D004D0052D
:20031800D006D007801FEB540F701A7582C0C007C006C005C004C00312019CD003D004D0EB
:2003380005D006D0078D828E838FF0121667FAA3AD82AE838A82C007C006C005C004C003E3
:200358001201BF90001412015AD003D004D005D006D0070202ECC2B575823812019C75823D
:200378000F12019C75820612019C75820112019C75828002019C75BB70D2C67580001203FC
:200398006E901DCE75F0801202D07582C012019C901DD475F0801202D075820112019C75C7
:2003B80094FF7593007596FF75950075B2E075B10075B44075B320C2C4C2C67580FF20C5B1
:2003D80006D2C4C2C480F7E4F547F548D2C490003212015AC2C490003212015A0547E4B5B0
:2003F80047020548C3E5479412E548940040DD9001F412015A75800020C506D2C4C2C4806E
:20041800F712027E12028E1202A17594FF75930075B44075B300C2C41201E2D28CD28E12F8
:2004380002BFAEBD7F00740A2EF514E43FF51590000A1213E212129A75380A753900E53F2F
:2004580020E01AC37420953F744E9540E49541E49542500912122E858238858339053FE4E0
:20047800B53F0C0540B540070541B541020542751488751513E4F516F517853F8285408367
:200498008541F0E5421211ABAC82AD83AEF0FFEC4D4E4F7015AEBDFF740A2EF514E43FF50C
:2004B8001590000A1213E212129A74102543FC74273544FDE43545FEE43546FFECB53F2EEF
:2004D800EDB5402AEEB54126EFB5422220031F754A00C28EC28CC2AD758000D2DE901BF98F
:2004F80075F0801202D0D28CD28ED2ADD2038538148539159000141213E2AE82AF83C3EEA7
:20051800940AEF94005043200140C28EC28CC2AD758000D2DEAF3874302FF5821201BF9069
:2005380003E812015A75820112019C901AE675F0801202D0D28CD28ED2ADD201C202853FB3
:200558004385404485414585424674102543FC74273544FDE43545FEE43546FFECB53F3C50
:20057800EDB54038EEB54134EFB5423020022DC28EC28CC2AD758000D2DE901BA275F080E8
:200598001202D0D28CD28ED2AD754A01D202C203853F43854044854145854246C053C0547A
:2005B800C055C05690500075F04374471213B2AF82E58124FCF581EF601F057BE4B57B02AD
:2005D800057CC374A0957B740F957C5011D2DE754901E4F57BF57C8005E4F57BF57CC04B1D
:2005F800C04CC04DC04E90000075F04874421213B2AF82E58124FCF581EF7025C0E0C0E001
:200618007448C0E074C2C0E0854B82854C83854DF0E54E1213B2AF82E58124FCF581EF60A2
:200638005C0523E4B5230205247401B52220752200C28EC28CC2AD758000D2DE901CEC7575
:20065800F0801202D0D28CD28ED2AD752200C374889523741395245024200021C28EC28C50
:20067800C2AD758000D2DEE4F523F524901C5575F0801202D0D200D28CD28ED2ADE4C0E0DC
:20069800C0E07440C0E07442C0E0854B82854C83854DF0E54E1213B2AF82E58124FCF58159
:2006B800EF6021C04BC04CC04DC04E90000075F04074C21213B2AF82E58124FCF581EF60C2
:2006D80003752201E4C0E0C0E07480C0E0743FC0E0855B82855C83855DF0E55E1213B2AFFB
:2006F80082E58124FCF581EF6051C28EC28C758000C04BC04CC04DC04E90000075F0207476
:20071800C11213B2AF82E58124FCF581EF6016C28EC28CC2AD758000D2DE90178375F080D6
:200738001202D080FEC28EC28CC2AD758000D2DE9017DB75F0801202D080FE7401B5494110
:20075800C28EC28CC2AD758000D2DE901A6675F0801202D0C04FC050C051C05290666675E3
:20077800F066743F1212AE85824F85835085F051F552E58124FCF581754900D28CD28ED281
:20079800AD30002F74ACC0E074C5C0E074A7C0E07437C0E08563828564838565F0E5661289
:2007B800117785826385836485F065F566E58124FCF58120B20F854F5785505885515985A5
:2007D800525A020456E4C0E0C0E0C0E07440C0E0854F828550838551F0E5521215A4858264
:2007F8005785835885F059F55AE58124FCF581020456C021C0E0C0F0C082C083C007C00672
:20081800C005C004C003C002C001C000C0D075D000758A80758CFCE53A704620C511758020
:2008380000C2C4D2C4120149C2C412014980ECE4F547F548758000C2C4D2C4120149C2C48A
:200858001201490547E4B547020548C3E5479410E548940040DEAE257F008E828F831201B0
:20087800897401B53A1620C508C2C4D2C4C2C480F5AE267F008E828F831201897402B53AE3
:200898000BAE277F008E828F831201897403B53A0BAE287F008E828F831201897404B53A38
:2008B8000BAE297F008E828F831201897405B53A0BAE2B7F008E828F831201897406B53A0F
:2008D8000DAE2C7F008E828F83120189D2877407B53A0BAE2D7F008E828F8312018974087A
:2008F800B53A0BAE2E7F008E828F831201897409B53A0DAE317F008E828F83120189D287DF
:20091800740AB53A0BAE327F008E828F83120189740BB53A0BAE337F008E828F8312018993
:20093800740CB53A0BAE2E7F008E828F83120189740DB53A0BAE357F008E828F8312018971
:20095800740EB53A0BAE367F008E828F83120189740FB53A0BAE377F008E828F8312018943
:200978007410B53A037580FF74EF253A4002053AE53A24EF5003753A00C2C4D2C412014906
:20099800C2C4D0D0D000D001D002D003D004D005D006D007D083D082D0F0D0E0D02132C085
:2009B80021C0E0C0F0C082C083C007C006C005C004C003C002C001C000C0D075D008E5BC8F
:2009D80075BC0074CDC0E014C0E0C0E0743DC0E08563828564838565F0E56675D0001213E3
:2009F800B275D008AF82E58124FCF581EF600CE4F553F554F555F556020A96AEBD7F00AA18
:200A180057AB58AC59AD5A8E828F83C00DC00CC00BC00A75D0001214EE75D008A882A9830C
:200A3800AEF0FFD00AD00BD00CD00DC00AC00BC00CC00D888289838EF0EF75D0001212AECB
:200A580075D008AC82AD83AEF0FFE58124FCF581E4C0E0C0E0747FC0E07443C0E08C828D91
:200A7800838EF0EF75D0001215A475D00885825385835485F055F556E58124FCF58175BC19
:200A980088D0D0D000D001D002D003D004D005D006D007D083D082D0F0D0E0D02132C02161
:200AB800C0E0C0F0C082C083C007C006C005C004C003C002C001C000C0D075D000758B0058
:200AD800758D4C7401B54A46C2ADE4F553F554F555F55685388285398312152FAC82AD8349
:200AF800AEF0FFE4C0E0C0E074C8C0E07442C0E08C828D838EF0EF1215A48582738583749F
:200B180085F075F576E58124FCF581020BC9C053C054C055C05690999A75F099743F1212AC
:200B3800AEAC82AD83AEF0FFE58124FCF581901DCAE493F8740193F9740293FA740393FB09
:200B5800C007C006C005C004C063C064C065C066888289838AF0EB12144CA882A983AAF0F8
:200B7800FBE58124FCF581D004D005D006D007C000C001C002C0038C828D838EF0EF121558
:200B9800A4AC82AD83AEF0FFE58124FCF581C05FC060C061C0628C828D838EF0EF121177FB
:200BB80085827385837485F075F576E58124FCF581C073C074C075C076856F828570838591
:200BD80071F0E5721212AE85826785836885F069F56AE58124FCF581C067C068C069C06ABA
:200BF800854B82854C83854DF0E54E12144C85824B85834C85F04DF54EE58124FCF581C069
:200C18006FC070C071C072854B82854C83854DF0E54E1212AE85827785837885F079F57AF2
:200C3800E58124FCF581C077C078C079C07A855B82855C83855DF0E55E12144C85825B858A
:200C5800835C85F05DF55EE58124FCF58174CDC0E014C0E0C0E0743DC0E085638285648320
:200C78008565F0E5661213B2AF82E58124FCF581EF600BE4F563F564F565F56680527480C9
:200C9800C0E07496C0E07498C0E0744BC0E08553828554838555F0E5561215A4AC82AD8303
:200CB800AEF0FFE58124FCF581C004C005C006C0078563828564838565F0E5661211778553
:200CD800826385836485F065F566E58124FCF581E4C0E0C0E0C0E0C0E0854B82854C8385EB
:200CF8004DF0E54E1213B2AF82E58124FCF581EF603375290BC04BC04CC04DC04E9000007B
:200D180075F02074C11212AEAC82AD83AEF0FFE58124FCF5818C828D838EF0EF1214FBAEDE
:200D380082AF83803175290AC04BC04CC04DC04E90000075F02074411212AEAA82AB83ACBA
:200D5800F0FDE58124FCF5818A828B838CF0ED1214FBAE82AF83C007C006E4C0E0C0E0C01B
:200D7800E0C0E08573828574838575F0E5761213B2AD82E58124FCF581D006D007ED603B69
:200D9800752E0BC007C006C073C074C075C07690000075F0C874C21212AEAA82AB83ACF073
:200DB800FDE58124FCF5818A828B838CF0ED1214FBAC82AD83D006D0078039752E0AC00746
:200DD800C006C073C074C075C07690000075F0C874421212AEA882A983AAF0FBE58124FCAD
:200DF800F581888289838AF0EB1214FBAC82AD83D006D007855B82855C83855DF0E55EC023
:200E180007C006C005C0041214FBAA82AB8375140A751500C003C0021213FFA882D002D057
:200E380003882875140A7515008A828B83121182AA82AB8375140A751500C003C0021213EA
:200E5800FFA882D002D003882775140A7515008A828B83121182AA82AB8375140A751500AA
:200E7800C003C0021213FFA882D002D003882675140A7515008A828B83121182AA82D00458
:200E9800D005D006D0078A2575140A7515008E828F83C007C006C005C0041213FFAA82D094
:200EB80004D005D006D0078A2D75140A7515008E828F83C005C004121182AE82AF83D0043A
:200ED800D00575140A7515008E828F83C007C006C005C0041213FFAA82D004D005D006D031
:200EF800078A2C75140A7515008E828F83C005C004121182AE82AF83D004D00575140A759D
:200F180015008E828F83C007C006C005C0041213FFAA82D004D005D006D0078A2B75140A7E
:200F38007515008E828F83C005C00412118275140A7515001213FFAE82D004D0058E2A7578
:200F5800140A7515008C828D83C005C0041213FFAE82D004D0058E3375140A7515008C8241
:200F78008D83121182AE82AF8375140A751500C007C0061213FFAC82D006D0078C32751452
:200F98000A7515008E828F83121182AE82AF8375140A751500C007C0061213FFAC82D006AA
:200FB800D0078C3175140A7515008E828F83121182AE82AF8375140A751500C007C0061283
:200FD80013FFAC82D006D0078C3075140A7515008E828F8312118275140A7515001213FF2B
:200FF800AE828E2F7433C0E0C0E07403C0E07441C0E08563828564838565F0E5661215A4D3
:20101800AC82AD83AEF0FFE58124FCF581C004C005C006C00790000075F0C874421212AE66
:20103800AC82AD83AEF0FFE58124FCF5818C828D838EF0EF1214FBAE82AF8375140A751576
:2010580000C007C0061213FFAC82D006D0078C3775140A7515008E828F83121182AE82AF66
:201078008375140A751500C007C0061213FFAC82D006D0078C3675140A7515008E828F832B
:20109800121182AE82AF8375140A751500C007C0061213FFAC82D006D0078C3575140A75BF
:2010B80015008E828F8312118275140A7515001213FFAE828E34D0D0D000D001D002D00323
:2010D800D004D005D006D007D083D082D0F0D0E0D02132C0E0C0D0C2D8853BEA853CFA74C7
:2010F80099253BF53B7403353CF53C053DE4B53D02053EC3E53D942CE53E94015004B2C610
:201118008058C3E53D9458E53E94025006A2C692C68047C3E53D9484E53E94035004B2C6F5
:201138008038C3E53D94B0E53E94045006A2C692C68027C3E53D94DCE53E94055004B2C661
:1F1158008018C3E53D9408E53E94075006A2C692C68007E4F53DF53EC2DED0D0D0E03299
:201777003F065B4F666D7D077F6F00403E596F752068617665207375636363657373667548
:201797006C6C79206C616E646564206F6E207468652073757266616365206F66204D6172BD
:2017B700732C2072657365617263682077696C6C20737461727420696D656164696174651D
:2017D7006C792E003E596F7520686176652063726173686564206F6E2074686520737572CE
:2017F70066616365206F66204D6172732E20596F752061726520746865206C6F6E652073F6
:2018170075727669766F72206F6620746865206D6F64756C652E20476F6F64206C75636BF2
:201837002E003E5B31323A3433504D20486F7573746F6E5D3A205468697320697320486FF7
:201857007573746F6E2C20796F752068617665207375636365737366756C6C792064657429
:2018770061636865642066726F6D20436F6D6D616E64204D6F64756C652E204F7665722019
:201897003E5B31323A3433504D20596F755D3A20436F707920746861742E20417761697433
:2018B700696E67206D616E75616C20656E67696E6520636F6E74726F6C20696E69746961E0
:2018D70074696F6E2E204F766572203E5B31323A3435504D20596F755D3A20436F6D652039
:2018F700696E20486F7573746F6E2C20656E67696E6520636F6E74726F6C20746F206D6116
:201917006E75616C2E20496E6974696174696E67206C616E64696E672070726F6365647593
:201937007265203E5B31323A3436504D20486F7573746F6E5D3A20537461746973746963DD
:20195700207265706F7274206F6E204C616E64696E67204D6F64756C652E20417761697410
:20197700696E67203E5B31323A3436504D20596F755D3A576520686176652066756C6C204E
:20199700636F6E74726F6C206F6620746865206D6F64756C652E204675656C2069732061DC
:2019B70074203939252E205368697020696E7465677269747920697320617420313030253D
:2019D7002E204865696768742061742031303035206D65746572732061626F766520746895
:2019F7006520737572666163652E204F766572203E5B31323A3437504D20486F7573746F78
:201A17006E5D3A20436F707920746861742C20796F752061726520676F20666F72206C61D3
:201A37006E64696E672E20476F6F64206C75636B2C2074686973206D697373696F6E20642F
:201A57006570656E6473206F6E20796F752E003E5B4D6F64756C6520496E746572636F6DE8
:201A77005D20436F6D6D616E6465722C206F757220656E67696E657320617265206F7665CF
:201A97007268656174696E672E20546865792061726520657870657269656E63696E67205C
:201AB70064616D6167652C20656E67696E6520746872757374206465637265617365732035
:201AD70062792031302070657263656E742E003E5B486F7573746F6E204D6973736F6E2012
:201AF700436F6E74726F6C5D3A20436F6D6520696E20417274656D69732E205765206861D4
:201B170076652064657465637465642061206C6576656C20322073616E6473746F726D204B
:201B370068656164696E672077657374206174203833206D2F732E20457374696D617465A2
:201B57006420696D706163742074696D6520697320756E6B6E6F776E2E20507265706172B9
:201B77006520696D6564696174656C792E20492072657065617420707265706172652069D2
:201B97006D6564696174656C7921003E5B596F755D3A20436F6D6520696E20486F75737414
:201BB7006F6E2E20576520686176652066756C6C20696D706163742C206F75722061636309
:201BD700656C65726174696F6E20697320666C756374756174696E67207261706964696C64
:201BF70079003E5B596F755D3A20436F6D6520696E20486F7573746F6E2E20576520617240
:201C170065206F7574206F66207468652073616E6473746F726D2E20546865726520736541
:201C3700656D7320746F206265206F6E6C79206D696E6F722064616D616765732E003E5B7E
:201C57004D6F64756C6520496E746572636F6D5D20436F6D6D616E6465722C2077652068E3
:201C77006176652064657465637465642061206675656C206C65616B206F6E207468652027
:201C970073696465206F6620746865206D6F64756C652E204675656C2069732064656372F8
:201CB700656173696E672072617069646C792E205468657265206973206E6F206375727266
:201CD700656E7420776179206F6620666978696E67206974003E5B4D6F64756C6520496EC8
:201CF700746572636F6D5D20436F6D6D616E6465722C206F75722076656C6F6369747920DF
:201D1700697320746F6F20686967682E2057652061726520657870657269656E63696E671B
:201D37002064616D61676520746F20746865206D6F64756C652E003E5B4D6F64756C6520B6
:201D5700496E746572636F6D5D20436F6D6D616E6465722C206F757220646973706C617960
:201D77002063697263756974727920697320656E636F6E746572696E672070726F626C65F2
:201D97006D732E2054686520616363656C65726174696F6E20616E64206675656C206469C7
:201DB70073706C617973206172652062726F6B656E2E0000204B4668656C6C6F0062796544
:041DD70062796500C8
:0B117700A8811818C6B2E7C602144C8D
:201182007A10E4FBFCE58225E0F582E58333F583EB33FBEC33FCEB9514F5F0EC9515400669
:0911A200FCABF0438201DADD220E
:2011AB00F9E51445154516451760777800C308E51720E73BE51425E0F514E51533F515E5A6
:2011CB001633F516E51733F517E5829514E5839515E5F09516E9951750D4C3E51713F5173C
:2011EB00E51613F516E51513F515E51413F514E5829514FCE5839515FDE5F09516FEE99588
:20120B00174007F98EF08D838C82C3E51713F517E51613F516E51513F515E51413F514D8D5
:03122B00CEE922E7
:0B012A00751001E4F511F5127513804B
:20122E00AC10AD11AE12AF138D00EEC313C813C8C313C813C8F9EF030354C049F9EF0303FE
:20124E00543FFA7B00EC6200ED6201EE6202EF6203E828FDE933FEEA33FF7C00E86204E93E
:20126E006205EA6206EB6207EFC313F8E4F9FAFBE86204E96205EA6206EB62078C108D1146
:20128E008E128F138C82747F5DF58322AE82AF837D007C008E108F118D1274804CF5132264
:2012AE00121351BC000302155CEF60FA30D502B2D1E583B4FF03021572E582B4FF030215CA
:2012CE0072258340072482400B02155C2483145003021572F582EA8DF0A4A8F0EA8EF0A47E
:2012EE0028F8E435F0F9EB8DF0A428E935F0F9E433CA8FF0A429F9EA35F0FAEBF88EF0A44F
:20130E0029F9EA35F0FAE433FBEC8DF0A429F9EA35F0FAE43BFBE88FF0A42AFAEB35F0FBF6
:20132E00E433CCFD8EF0A42AFAEB35F0FBE43CFCED8FF0A42BFBEC35F0FC20E70312137F61
:03134E0002153B4A
:20135100AA82AB83A2F73392D1F5826002D2F7ACF0E58124F9F8E6FD08E6FE0886F008E6FF
:0E137100A2F73392D5F5836002D2F7AFF022D7
:06007000E478FFF6D8FD64
:20137F007804EC7011E58224F8500AF582E4C9CACBFCD8EF22EC7820058220E713D582016D
:13139F0022C3E933F9EA33FAEB33FBEC33FCD8EA1582227B
:20004E007900E94400601B7A00901DDB780175A000E493F2A308B8000205A0D9F4DAF27560
:02006E00A0FFF1
:2013B200FFA88118181214C3D2D133E6400730E70B7582002220E70675820122C2D11214BC
:1013D200A5E97003F5822220D101B3E433F582221C
:1D13E200E5828514F0A4C582C0F08515F0A4D0F025F0C5838514F0A42583F58322A9
:2013FF00E514451560467A01E51425E0F514E515334012F515E5829514E583951540030A5B
:20141F0080E6C3E51513F515E51413F514C3E5829514F5F0E58395154005F58385F082C317
:0D143F00E51513F515E51413F514DAE12297
:200076007800E84400600A790175A000E4F309D8FC7800E84400600C7900900001E4F0A388
:04009600D8FCD9FABF
:20144C001213517900E583B58202800D500312158AE583C395821216C3E5D0C465D020E183
:20146C0017EA2DFAEB3EFBEC3FFC500974011216C3EC4480FC02153BC3EA9DFAEB9EFBEC82
:19148C009FFC500FC3E499F9E49AFAE49BFBE49CFCB2D112137F02153B2D
:2014A5007901AA82E68F82B5821318E6B5F00E18E6B5830918E68A82B58202790022B4803E
:2014C5000FE5F0700AE5837006E58270027F00EFB6801518B6001018B6000B18B6000608A6
:0914E5000808760022080808221C
:0D14EE00AC83AB827A007900748E02168CFC
:2014FB00121706700AE582458345F0700122E430D112F4700BE5F0F47006E58330E70122EA
:14151B0090800022700AE5F07006E58320E70122907FFF2203
:0C152F00E4AC83AB82FAF9748E0216B9AA
:20153B00B98003EA13B34010EA2401FAE43BFBE43CFC50047C800582BC000EBB000BBA00F4
:20155B0008E4F5F0F583F58222A2D1E582138CF092F78B838A8222E4F583F58275F080F4B4
:0F157B00A2D11322E4F583F58275F0C0747F22AC
:1A158A00E582C583F582A2D133A2D592D11392D5ECCFFCEBCEFBEACDFA22E9
:2015A40012135130D502B2D1BF0009BC000302157F021572BC000302155CE583B4FF0BE544
:2015C40082B4FF0302157F02155CE582B4FF03021572C395835007247F400B02155C2480E9
:2015E400145003021572F582C3ED9AEE9BEF9C40111582C3EA33F9EB33FAEC33FBE433FC1C
:201604008005E4CCCBCAF9C08275F019C3E99DEA9EEB9FEC9400D5F002802D400EE99DF927
:20162400EA9EFAEB9FFBEC9400FCC3B3E833F8E58233F582E58333F583C3E933F9EA33FA87
:20164400EB33FBEC33FC80C4B3E4F938FAE43582FBE43583FCD082500405827C8012137F51
:0316640002155319
:0D00410075817C121761E582600302003EAC
:1C16670020F71430F6148883A88220F507E6A88375830022E280F7E49322E02292
:20168300FCABF0AA83A982749EF582C2D1EC30E716D2D1E9F42401F9EAF43400FAEBF43466
:0D16A30000FBECF43400FC12137F02153B39
:1316B000FCABF0AA83A982749EC2D1F58212137F02153B26
:2016C3006040F82582500274FFF582E824F8501ECCCBCAF9E4CC24F85014CBCAF9E4CB242F
:2016E300F8500BCAF9E4CA24F8500379002224086010F8C3EC13FCEB13FBEA13FAE913F9E2
:03170300D8F122F8
:20170600121765C3749E9582403979001216C330D126E9F42401F582EAF43400F583EBF463
:201726003400F5F0ECF43400700AE582458345F0700122E430E70F22EC20E71489828A83BA
:1B1746008BF02230D10AE4F582F583F5F074802274FFF582F583F5F0747F22B6
:04176100758200226B
:12176500AA82AB83A2F73392D1F5826002D2F7ACF02289
:00000001FF
